{
  "_format": "hh-sol-artifact-1",
  "contractName": "AaveDebtAdapter",
  "sourceName": "contracts/adapters/aave/AaveDebtAdapter.sol",
  "abi": [
    {
      "inputs": [
        {
          "internalType": "address",
          "name": "provider",
          "type": "address"
        }
      ],
      "stateMutability": "nonpayable",
      "type": "constructor"
    },
    {
      "inputs": [
        {
          "internalType": "address",
          "name": "token",
          "type": "address"
        },
        {
          "internalType": "address",
          "name": "account",
          "type": "address"
        }
      ],
      "name": "getBalance",
      "outputs": [
        {
          "internalType": "int256",
          "name": "",
          "type": "int256"
        }
      ],
      "stateMutability": "view",
      "type": "function"
    }
  ],
  "bytecode": "0x60a060405234801561001057600080fd5b506040516105f83803806105f8833981810160405281019061003291906100f4565b600073ffffffffffffffffffffffffffffffffffffffff168173ffffffffffffffffffffffffffffffffffffffff1614156100a2576040517f08c379a000000000000000000000000000000000000000000000000000000000815260040161009990610140565b60405180910390fd5b8073ffffffffffffffffffffffffffffffffffffffff1660808173ffffffffffffffffffffffffffffffffffffffff1660601b81525050506101e3565b6000815190506100ee816101cc565b92915050565b60006020828403121561010657600080fd5b6000610114848285016100df565b91505092915050565b600061012a600e83610160565b9150610135826101a3565b602082019050919050565b600060208201905081810360008301526101598161011d565b9050919050565b600082825260208201905092915050565b600061017c82610183565b9050919050565b600073ffffffffffffffffffffffffffffffffffffffff82169050919050565b7f454d5054595f50524f5649444552000000000000000000000000000000000000600082015250565b6101d581610171565b81146101e057600080fd5b50565b60805160601c6103f86102006000396000606501526103f86000f3fe608060405234801561001057600080fd5b506004361061002b5760003560e01c8063d4fac45d14610030575b600080fd5b61004a60048036038101906100459190610211565b610060565b60405161005791906102d0565b60405180910390f35b6000807f000000000000000000000000000000000000000000000000000000000000000073ffffffffffffffffffffffffffffffffffffffff16630261bf8b6040518163ffffffff1660e01b815260040160206040518083038186803b1580156100c957600080fd5b505afa1580156100dd573d6000803e3d6000fd5b505050506040513d601f19601f8201168201806040525081019061010191906101e8565b905060008173ffffffffffffffffffffffffffffffffffffffff166328dd2d0186866040518363ffffffff1660e01b81526004016101409291906102a7565b604080518083038186803b15801561015757600080fd5b505afa15801561016b573d6000803e3d6000fd5b505050506040513d601f19601f8201168201806040525081019061018f919061024d565b91505080600061019f91906102eb565b9250505092915050565b6000813590506101b881610394565b92915050565b6000815190506101cd81610394565b92915050565b6000815190506101e2816103ab565b92915050565b6000602082840312156101fa57600080fd5b6000610208848285016101be565b91505092915050565b6000806040838503121561022457600080fd5b6000610232858286016101a9565b9250506020610243858286016101a9565b9150509250929050565b6000806040838503121561026057600080fd5b600061026e858286016101d3565b925050602061027f858286016101d3565b9150509250929050565b6102928161031f565b82525050565b6102a181610331565b82525050565b60006040820190506102bc6000830185610289565b6102c96020830184610289565b9392505050565b60006020820190506102e56000830184610298565b92915050565b60006102f68261035b565b91506103018361035b565b92508282101561031457610313610365565b5b828203905092915050565b600061032a8261033b565b9050919050565b6000819050919050565b600073ffffffffffffffffffffffffffffffffffffffff82169050919050565b6000819050919050565b7f4e487b7100000000000000000000000000000000000000000000000000000000600052601160045260246000fd5b61039d8161031f565b81146103a857600080fd5b50565b6103b48161035b565b81146103bf57600080fd5b5056fea2646970667358221220d19d79dbdb8afb3c2e5f67a50cb35d167f640e3f26aa8b4d1184e4b49ab3be0464736f6c63430008040033",
  "linkReferences": {},
  "deployedLinkReferences": {}
}