{
  "_format": "hh-sol-artifact-1",
  "contractName": "AaveAdapter",
  "sourceName": "contracts/adapters/aave/AaveAdapter.sol",
  "abi": [
    {
      "inputs": [
        {
          "internalType": "address",
          "name": "token",
          "type": "address"
        },
        {
          "internalType": "address",
          "name": "user",
          "type": "address"
        }
      ],
      "name": "getBalance",
      "outputs": [
        {
          "internalType": "uint256",
          "name": "",
          "type": "uint256"
        }
      ],
      "stateMutability": "view",
      "type": "function"
    },
    {
      "inputs": [
        {
          "internalType": "address",
          "name": "user",
          "type": "address"
        }
      ],
      "name": "getCollateralInEth",
      "outputs": [
        {
          "internalType": "uint256",
          "name": "",
          "type": "uint256"
        }
      ],
      "stateMutability": "view",
      "type": "function"
    },
    {
      "inputs": [
        {
          "internalType": "address",
          "name": "user",
          "type": "address"
        }
      ],
      "name": "getDebtInEth",
      "outputs": [
        {
          "internalType": "uint256",
          "name": "",
          "type": "uint256"
        }
      ],
      "stateMutability": "view",
      "type": "function"
    },
    {
      "inputs": [
        {
          "internalType": "address",
          "name": "token",
          "type": "address"
        }
      ],
      "name": "getMetadata",
      "outputs": [
        {
          "components": [
            {
              "internalType": "string",
              "name": "name",
              "type": "string"
            },
            {
              "internalType": "string",
              "name": "symbol",
              "type": "string"
            },
            {
              "internalType": "uint8",
              "name": "decimals",
              "type": "uint8"
            }
          ],
          "internalType": "struct ERC20Metadata",
          "name": "",
          "type": "tuple"
        }
      ],
      "stateMutability": "view",
      "type": "function"
    },
    {
      "inputs": [],
      "name": "pool",
      "outputs": [
        {
          "internalType": "address",
          "name": "",
          "type": "address"
        }
      ],
      "stateMutability": "view",
      "type": "function"
    },
    {
      "inputs": [],
      "name": "provider",
      "outputs": [
        {
          "internalType": "address",
          "name": "",
          "type": "address"
        }
      ],
      "stateMutability": "view",
      "type": "function"
    }
  ],
  "bytecode": "0x60806040527388757f2f99175387ab4c6a4b3067c77a695b03496000806101000a81548173ffffffffffffffffffffffffffffffffffffffff021916908373ffffffffffffffffffffffffffffffffffffffff16021790555060008054906101000a900473ffffffffffffffffffffffffffffffffffffffff1673ffffffffffffffffffffffffffffffffffffffff16630261bf8b6040518163ffffffff1660e01b815260040160206040518083038186803b1580156100be57600080fd5b505afa1580156100d2573d6000803e3d6000fd5b505050506040513d601f19601f820116820180604052508101906100f6919061015d565b600160006101000a81548173ffffffffffffffffffffffffffffffffffffffff021916908373ffffffffffffffffffffffffffffffffffffffff16021790555034801561014257600080fd5b506101cf565b600081519050610157816101b8565b92915050565b60006020828403121561016f57600080fd5b600061017d84828501610148565b91505092915050565b600061019182610198565b9050919050565b600073ffffffffffffffffffffffffffffffffffffffff82169050919050565b6101c181610186565b81146101cc57600080fd5b50565b610adb806101de6000396000f3fe608060405234801561001057600080fd5b50600436106100625760003560e01c8063085d488314610067578063105b608d1461008557806316f0115b146100b55780632a50c146146100d3578063c4b7424314610103578063d4fac45d14610133575b600080fd5b61006f610163565b60405161007c91906108a9565b60405180910390f35b61009f600480360381019061009a919061066b565b610187565b6040516100ac91906108e6565b60405180910390f35b6100bd610245565b6040516100ca91906108a9565b60405180910390f35b6100ed60048036038101906100e8919061066b565b61026b565b6040516100fa91906108c4565b60405180910390f35b61011d6004803603810190610118919061066b565b6102b0565b60405161012a91906108e6565b60405180910390f35b61014d60048036038101906101489190610694565b61036e565b60405161015a91906108e6565b60405180910390f35b60008054906101000a900473ffffffffffffffffffffffffffffffffffffffff1681565b600080600160009054906101000a900473ffffffffffffffffffffffffffffffffffffffff1673ffffffffffffffffffffffffffffffffffffffff1663bf92857c846040518263ffffffff1660e01b81526004016101e591906108a9565b60c06040518083038186803b1580156101fd57600080fd5b505afa158015610211573d6000803e3d6000fd5b505050506040513d601f19601f82011682018060405250810190610235919061073a565b5050505050905080915050919050565b600160009054906101000a900473ffffffffffffffffffffffffffffffffffffffff1681565b6102736105a0565b604051806060016040528061028784610401565b81526020016102958461048d565b81526020016102a384610519565b60ff168152509050919050565b600080600160009054906101000a900473ffffffffffffffffffffffffffffffffffffffff1673ffffffffffffffffffffffffffffffffffffffff1663bf92857c846040518263ffffffff1660e01b815260040161030e91906108a9565b60c06040518083038186803b15801561032657600080fd5b505afa15801561033a573d6000803e3d6000fd5b505050506040513d601f19601f8201168201806040525081019061035e919061073a565b5050505091505080915050919050565b60008273ffffffffffffffffffffffffffffffffffffffff166370a08231836040518263ffffffff1660e01b81526004016103a991906108a9565b60206040518083038186803b1580156103c157600080fd5b505afa1580156103d5573d6000803e3d6000fd5b505050506040513d601f19601f820116820180604052508101906103f99190610711565b905092915050565b60608173ffffffffffffffffffffffffffffffffffffffff166306fdde036040518163ffffffff1660e01b815260040160006040518083038186803b15801561044957600080fd5b505afa15801561045d573d6000803e3d6000fd5b505050506040513d6000823e3d601f19601f8201168201806040525081019061048691906106d0565b9050919050565b60608173ffffffffffffffffffffffffffffffffffffffff166395d89b416040518163ffffffff1660e01b815260040160006040518083038186803b1580156104d557600080fd5b505afa1580156104e9573d6000803e3d6000fd5b505050506040513d6000823e3d601f19601f8201168201806040525081019061051291906106d0565b9050919050565b60008173ffffffffffffffffffffffffffffffffffffffff1663313ce5676040518163ffffffff1660e01b815260040160206040518083038186803b15801561056157600080fd5b505afa158015610575573d6000803e3d6000fd5b505050506040513d601f19601f8201168201806040525081019061059991906107c3565b9050919050565b60405180606001604052806060815260200160608152602001600060ff1681525090565b60006105d76105d284610926565b610901565b9050828152602081018484840111156105ef57600080fd5b6105fa8482856109bc565b509392505050565b60008135905061061181610a60565b92915050565b600082601f83011261062857600080fd5b81516106388482602086016105c4565b91505092915050565b60008151905061065081610a77565b92915050565b60008151905061066581610a8e565b92915050565b60006020828403121561067d57600080fd5b600061068b84828501610602565b91505092915050565b600080604083850312156106a757600080fd5b60006106b585828601610602565b92505060206106c685828601610602565b9150509250929050565b6000602082840312156106e257600080fd5b600082015167ffffffffffffffff8111156106fc57600080fd5b61070884828501610617565b91505092915050565b60006020828403121561072357600080fd5b600061073184828501610641565b91505092915050565b60008060008060008060c0878903121561075357600080fd5b600061076189828a01610641565b965050602061077289828a01610641565b955050604061078389828a01610641565b945050606061079489828a01610641565b93505060806107a589828a01610641565b92505060a06107b689828a01610641565b9150509295509295509295565b6000602082840312156107d557600080fd5b60006107e384828501610656565b91505092915050565b6107f581610973565b82525050565b600061080682610957565b6108108185610962565b93506108208185602086016109bc565b61082981610a4f565b840191505092915050565b6000606083016000830151848203600086015261085182826107fb565b9150506020830151848203602086015261086b82826107fb565b9150506040830151610880604086018261089a565b508091505092915050565b610894816109a5565b82525050565b6108a3816109af565b82525050565b60006020820190506108be60008301846107ec565b92915050565b600060208201905081810360008301526108de8184610834565b905092915050565b60006020820190506108fb600083018461088b565b92915050565b600061090b61091c565b905061091782826109ef565b919050565b6000604051905090565b600067ffffffffffffffff82111561094157610940610a20565b5b61094a82610a4f565b9050602081019050919050565b600081519050919050565b600082825260208201905092915050565b600061097e82610985565b9050919050565b600073ffffffffffffffffffffffffffffffffffffffff82169050919050565b6000819050919050565b600060ff82169050919050565b60005b838110156109da5780820151818401526020810190506109bf565b838111156109e9576000848401525b50505050565b6109f882610a4f565b810181811067ffffffffffffffff82111715610a1757610a16610a20565b5b80604052505050565b7f4e487b7100000000000000000000000000000000000000000000000000000000600052604160045260246000fd5b6000601f19601f8301169050919050565b610a6981610973565b8114610a7457600080fd5b50565b610a80816109a5565b8114610a8b57600080fd5b50565b610a97816109af565b8114610aa257600080fd5b5056fea264697066735822122021751eead27b24ae05e04b9d7cb13015eb8fe5b1997295b42d451597806b253964736f6c63430008040033",
  "linkReferences": {},
  "deployedLinkReferences": {}
}