{
  "_format": "hh-sol-artifact-1",
  "contractName": "AaveTokenAdapter",
  "sourceName": "contracts/adapters/aave/AaveTokenAdapter.sol",
  "abi": [
    {
      "inputs": [
        {
          "internalType": "address",
          "name": "token",
          "type": "address"
        }
      ],
      "name": "getComponents",
      "outputs": [
        {
          "components": [
            {
              "internalType": "address",
              "name": "token",
              "type": "address"
            },
            {
              "internalType": "int256",
              "name": "rate",
              "type": "int256"
            }
          ],
          "internalType": "struct Component[]",
          "name": "",
          "type": "tuple[]"
        }
      ],
      "stateMutability": "view",
      "type": "function"
    },
    {
      "inputs": [
        {
          "internalType": "address",
          "name": "token",
          "type": "address"
        }
      ],
      "name": "getMetadata",
      "outputs": [
        {
          "components": [
            {
              "internalType": "string",
              "name": "name",
              "type": "string"
            },
            {
              "internalType": "string",
              "name": "symbol",
              "type": "string"
            },
            {
              "internalType": "uint8",
              "name": "decimals",
              "type": "uint8"
            }
          ],
          "internalType": "struct ERC20Metadata",
          "name": "",
          "type": "tuple"
        }
      ],
      "stateMutability": "view",
      "type": "function"
    }
  ],
  "bytecode": "0x608060405234801561001057600080fd5b50610957806100206000396000f3fe608060405234801561001057600080fd5b50600436106100365760003560e01c80632a50c1461461003b57806379b183341461006b575b600080fd5b610055600480360381019061005091906104f9565b61009b565b6040516100629190610739565b60405180910390f35b610085600480360381019061008091906104f9565b6100e0565b6040516100929190610717565b60405180910390f35b6100a36103fe565b60405180606001604052806100b78461025f565b81526020016100c5846102eb565b81526020016100d384610377565b60ff168152509050919050565b60606000600167ffffffffffffffff811115610125577f4e487b7100000000000000000000000000000000000000000000000000000000600052604160045260246000fd5b60405190808252806020026020018201604052801561015e57816020015b61014b610422565b8152602001906001900390816101435790505b50905060405180604001604052808473ffffffffffffffffffffffffffffffffffffffff166389d1a0fc6040518163ffffffff1660e01b815260040160206040518083038186803b1580156101b257600080fd5b505afa1580156101c6573d6000803e3d6000fd5b505050506040513d601f19601f820116820180604052508101906101ea9190610522565b73ffffffffffffffffffffffffffffffffffffffff168152602001670de0b6b3a76400008152508160008151811061024b577f4e487b7100000000000000000000000000000000000000000000000000000000600052603260045260246000fd5b602002602001018190525080915050919050565b60608173ffffffffffffffffffffffffffffffffffffffff166306fdde036040518163ffffffff1660e01b815260040160006040518083038186803b1580156102a757600080fd5b505afa1580156102bb573d6000803e3d6000fd5b505050506040513d6000823e3d601f19601f820116820180604052508101906102e4919061054b565b9050919050565b60608173ffffffffffffffffffffffffffffffffffffffff166395d89b416040518163ffffffff1660e01b815260040160006040518083038186803b15801561033357600080fd5b505afa158015610347573d6000803e3d6000fd5b505050506040513d6000823e3d601f19601f82011682018060405250810190610370919061054b565b9050919050565b60008173ffffffffffffffffffffffffffffffffffffffff1663313ce5676040518163ffffffff1660e01b815260040160206040518083038186803b1580156103bf57600080fd5b505afa1580156103d3573d6000803e3d6000fd5b505050506040513d601f19601f820116820180604052508101906103f7919061058c565b9050919050565b60405180606001604052806060815260200160608152602001600060ff1681525090565b6040518060400160405280600073ffffffffffffffffffffffffffffffffffffffff168152602001600081525090565b600061046561046084610780565b61075b565b90508281526020810184848401111561047d57600080fd5b61048884828561084f565b509392505050565b60008135905061049f816108f3565b92915050565b6000815190506104b4816108f3565b92915050565b600082601f8301126104cb57600080fd5b81516104db848260208601610452565b91505092915050565b6000815190506104f38161090a565b92915050565b60006020828403121561050b57600080fd5b600061051984828501610490565b91505092915050565b60006020828403121561053457600080fd5b6000610542848285016104a5565b91505092915050565b60006020828403121561055d57600080fd5b600082015167ffffffffffffffff81111561057757600080fd5b610583848285016104ba565b91505092915050565b60006020828403121561059e57600080fd5b60006105ac848285016104e4565b91505092915050565b60006105c18383610682565b60408301905092915050565b6105d681610806565b82525050565b60006105e7826107c1565b6105f181856107e4565b93506105fc836107b1565b8060005b8381101561062d57815161061488826105b5565b975061061f836107d7565b925050600181019050610600565b5085935050505092915050565b61064381610818565b82525050565b6000610654826107cc565b61065e81856107f5565b935061066e81856020860161084f565b610677816108e2565b840191505092915050565b60408201600082015161069860008501826105cd565b5060208201516106ab602085018261063a565b50505050565b600060608301600083015184820360008601526106ce8282610649565b915050602083015184820360208601526106e88282610649565b91505060408301516106fd6040860182610708565b508091505092915050565b61071181610842565b82525050565b6000602082019050818103600083015261073181846105dc565b905092915050565b6000602082019050818103600083015261075381846106b1565b905092915050565b6000610765610776565b90506107718282610882565b919050565b6000604051905090565b600067ffffffffffffffff82111561079b5761079a6108b3565b5b6107a4826108e2565b9050602081019050919050565b6000819050602082019050919050565b600081519050919050565b600081519050919050565b6000602082019050919050565b600082825260208201905092915050565b600082825260208201905092915050565b600061081182610822565b9050919050565b6000819050919050565b600073ffffffffffffffffffffffffffffffffffffffff82169050919050565b600060ff82169050919050565b60005b8381101561086d578082015181840152602081019050610852565b8381111561087c576000848401525b50505050565b61088b826108e2565b810181811067ffffffffffffffff821117156108aa576108a96108b3565b5b80604052505050565b7f4e487b7100000000000000000000000000000000000000000000000000000000600052604160045260246000fd5b6000601f19601f8301169050919050565b6108fc81610806565b811461090757600080fd5b50565b61091381610842565b811461091e57600080fd5b5056fea26469706673582212205b59b46f4b5b5ef1f22dd644dd1a3bb9ed2eb16a13d7e3bce528cc353b41763864736f6c63430008040033",
  "linkReferences": {},
  "deployedLinkReferences": {}
}