{
  "_format": "hh-sol-artifact-1",
  "contractName": "AaveInteractiveAdapter",
  "sourceName": "contracts/adapters/aave/AaveInteractiveAdapter.sol",
  "abi": [
    {
      "inputs": [
        {
          "internalType": "address",
          "name": "token",
          "type": "address"
        },
        {
          "internalType": "uint256",
          "name": "amount",
          "type": "uint256"
        }
      ],
      "name": "deposit",
      "outputs": [],
      "stateMutability": "nonpayable",
      "type": "function"
    },
    {
      "inputs": [],
      "name": "pool",
      "outputs": [
        {
          "internalType": "address",
          "name": "",
          "type": "address"
        }
      ],
      "stateMutability": "view",
      "type": "function"
    },
    {
      "inputs": [],
      "name": "provider",
      "outputs": [
        {
          "internalType": "address",
          "name": "",
          "type": "address"
        }
      ],
      "stateMutability": "view",
      "type": "function"
    },
    {
      "inputs": [
        {
          "internalType": "address",
          "name": "token",
          "type": "address"
        },
        {
          "internalType": "uint256",
          "name": "amount",
          "type": "uint256"
        }
      ],
      "name": "withdraw",
      "outputs": [],
      "stateMutability": "nonpayable",
      "type": "function"
    }
  ],
  "bytecode": "0x60806040527388757f2f99175387ab4c6a4b3067c77a695b03496000806101000a81548173ffffffffffffffffffffffffffffffffffffffff021916908373ffffffffffffffffffffffffffffffffffffffff16021790555060008054906101000a900473ffffffffffffffffffffffffffffffffffffffff1673ffffffffffffffffffffffffffffffffffffffff16630261bf8b6040518163ffffffff1660e01b815260040160206040518083038186803b1580156100be57600080fd5b505afa1580156100d2573d6000803e3d6000fd5b505050506040513d601f19601f820116820180604052508101906100f6919061015d565b600160006101000a81548173ffffffffffffffffffffffffffffffffffffffff021916908373ffffffffffffffffffffffffffffffffffffffff16021790555034801561014257600080fd5b506101cf565b600081519050610157816101b8565b92915050565b60006020828403121561016f57600080fd5b600061017d84828501610148565b91505092915050565b600061019182610198565b9050919050565b600073ffffffffffffffffffffffffffffffffffffffff82169050919050565b6101c181610186565b81146101cc57600080fd5b50565b610d43806101de6000396000f3fe608060405234801561001057600080fd5b506004361061004c5760003560e01c8063085d48831461005157806316f0115b1461006f57806347e7ef241461008d578063f3fef3a3146100a9575b600080fd5b6100596100c5565b60405161006691906108ea565b60405180910390f35b6100776100e9565b60405161008491906108ea565b60405180910390f35b6100a760048036038101906100a29190610722565b61010f565b005b6100c360048036038101906100be9190610722565b610237565b005b60008054906101000a900473ffffffffffffffffffffffffffffffffffffffff1681565b600160009054906101000a900473ffffffffffffffffffffffffffffffffffffffff1681565b60008111610152576040517f08c379a0000000000000000000000000000000000000000000000000000000008152600401610149906109f5565b60405180910390fd5b61019f600160009054906101000a900473ffffffffffffffffffffffffffffffffffffffff16828473ffffffffffffffffffffffffffffffffffffffff166103309092919063ffffffff16565b600160009054906101000a900473ffffffffffffffffffffffffffffffffffffffff1673ffffffffffffffffffffffffffffffffffffffff1663e8eda9df83833360006040518563ffffffff1660e01b8152600401610201949392919061098e565b600060405180830381600087803b15801561021b57600080fd5b505af115801561022f573d6000803e3d6000fd5b505050505050565b6000811161027a576040517f08c379a0000000000000000000000000000000000000000000000000000000008152600401610271906109f5565b60405180910390fd5b600160009054906101000a900473ffffffffffffffffffffffffffffffffffffffff1673ffffffffffffffffffffffffffffffffffffffff166369328dec8383336040518463ffffffff1660e01b81526004016102d993929190610957565b602060405180830381600087803b1580156102f357600080fd5b505af1158015610307573d6000803e3d6000fd5b505050506040513d601f19601f8201168201806040525081019061032b9190610787565b505050565b6000818473ffffffffffffffffffffffffffffffffffffffff1663dd62ed3e30866040518363ffffffff1660e01b815260040161036e929190610905565b60206040518083038186803b15801561038657600080fd5b505afa15801561039a573d6000803e3d6000fd5b505050506040513d601f19601f820116820180604052508101906103be9190610787565b6103c89190610aa7565b905061044b8463095ea7b360e01b85846040516024016103e992919061092e565b604051602081830303815290604052907bffffffffffffffffffffffffffffffffffffffffffffffffffffffff19166020820180517bffffffffffffffffffffffffffffffffffffffffffffffffffffffff8381831617835250505050610451565b50505050565b60006104b3826040518060400160405280602081526020017f5361666545524332303a206c6f772d6c6576656c2063616c6c206661696c65648152508573ffffffffffffffffffffffffffffffffffffffff166105189092919063ffffffff16565b905060008151111561051357808060200190518101906104d3919061075e565b610512576040517f08c379a000000000000000000000000000000000000000000000000000000000815260040161050990610a55565b60405180910390fd5b5b505050565b60606105278484600085610530565b90509392505050565b606082471015610575576040517f08c379a000000000000000000000000000000000000000000000000000000000815260040161056c90610a15565b60405180910390fd5b61057e85610644565b6105bd576040517f08c379a00000000000000000000000000000000000000000000000000000000081526004016105b490610a35565b60405180910390fd5b6000808673ffffffffffffffffffffffffffffffffffffffff1685876040516105e691906108d3565b60006040518083038185875af1925050503d8060008114610623576040519150601f19603f3d011682016040523d82523d6000602084013e610628565b606091505b5091509150610638828286610667565b92505050949350505050565b6000808273ffffffffffffffffffffffffffffffffffffffff163b119050919050565b60608315610677578290506106c7565b60008351111561068a5782518084602001fd5b816040517f08c379a00000000000000000000000000000000000000000000000000000000081526004016106be91906109d3565b60405180910390fd5b9392505050565b6000813590506106dd81610cc8565b92915050565b6000815190506106f281610cdf565b92915050565b60008135905061070781610cf6565b92915050565b60008151905061071c81610cf6565b92915050565b6000806040838503121561073557600080fd5b6000610743858286016106ce565b9250506020610754858286016106f8565b9150509250929050565b60006020828403121561077057600080fd5b600061077e848285016106e3565b91505092915050565b60006020828403121561079957600080fd5b60006107a78482850161070d565b91505092915050565b6107b981610afd565b82525050565b60006107ca82610a75565b6107d48185610a8b565b93506107e4818560208601610b65565b80840191505092915050565b6107f981610b53565b82525050565b600061080a82610a80565b6108148185610a96565b9350610824818560208601610b65565b61082d81610bc7565b840191505092915050565b6000610845600c83610a96565b915061085082610bd8565b602082019050919050565b6000610868602683610a96565b915061087382610c01565b604082019050919050565b600061088b601d83610a96565b915061089682610c50565b602082019050919050565b60006108ae602a83610a96565b91506108b982610c79565b604082019050919050565b6108cd81610b49565b82525050565b60006108df82846107bf565b915081905092915050565b60006020820190506108ff60008301846107b0565b92915050565b600060408201905061091a60008301856107b0565b61092760208301846107b0565b9392505050565b600060408201905061094360008301856107b0565b61095060208301846108c4565b9392505050565b600060608201905061096c60008301866107b0565b61097960208301856108c4565b61098660408301846107b0565b949350505050565b60006080820190506109a360008301876107b0565b6109b060208301866108c4565b6109bd60408301856107b0565b6109ca60608301846107f0565b95945050505050565b600060208201905081810360008301526109ed81846107ff565b905092915050565b60006020820190508181036000830152610a0e81610838565b9050919050565b60006020820190508181036000830152610a2e8161085b565b9050919050565b60006020820190508181036000830152610a4e8161087e565b9050919050565b60006020820190508181036000830152610a6e816108a1565b9050919050565b600081519050919050565b600081519050919050565b600081905092915050565b600082825260208201905092915050565b6000610ab282610b49565b9150610abd83610b49565b9250827fffffffffffffffffffffffffffffffffffffffffffffffffffffffffffffffff03821115610af257610af1610b98565b5b828201905092915050565b6000610b0882610b29565b9050919050565b60008115159050919050565b600061ffff82169050919050565b600073ffffffffffffffffffffffffffffffffffffffff82169050919050565b6000819050919050565b6000610b5e82610b1b565b9050919050565b60005b83811015610b83578082015181840152602081019050610b68565b83811115610b92576000848401525b50505050565b7f4e487b7100000000000000000000000000000000000000000000000000000000600052601160045260246000fd5b6000601f19601f8301169050919050565b7f414d4f554e54204552524f520000000000000000000000000000000000000000600082015250565b7f416464726573733a20696e73756666696369656e742062616c616e636520666f60008201527f722063616c6c0000000000000000000000000000000000000000000000000000602082015250565b7f416464726573733a2063616c6c20746f206e6f6e2d636f6e7472616374000000600082015250565b7f5361666545524332303a204552433230206f7065726174696f6e20646964206e60008201527f6f74207375636365656400000000000000000000000000000000000000000000602082015250565b610cd181610afd565b8114610cdc57600080fd5b50565b610ce881610b0f565b8114610cf357600080fd5b50565b610cff81610b49565b8114610d0a57600080fd5b5056fea2646970667358221220510a3e227a2bac73efc65f6da2aff0e34da5f8b1c140042b65e1689b6a792ca864736f6c63430008040033",
  "linkReferences": {},
  "deployedLinkReferences": {}
}